{"abi":[{"type":"constructor","inputs":[{"name":"initialAdmin","type":"address","internalType":"address"}],"stateMutability":"nonpayable"},{"type":"function","name":"DEFAULT_ADMIN_ROLE","inputs":[],"outputs":[{"name":"","type":"bytes32","internalType":"bytes32"}],"stateMutability":"view"},{"type":"function","name":"JUDGE_ROLE","inputs":[],"outputs":[{"name":"","type":"bytes32","internalType":"bytes32"}],"stateMutability":"view"},{"type":"function","name":"LAWYER_ROLE","inputs":[],"outputs":[{"name":"","type":"bytes32","internalType":"bytes32"}],"stateMutability":"view"},{"type":"function","name":"caseRegistry","inputs":[{"name":"","type":"uint256","internalType":"uint256"},{"name":"","type":"uint256","internalType":"uint256"}],"outputs":[{"name":"caseId","type":"uint256","internalType":"uint256"},{"name":"fileHash","type":"bytes32","internalType":"bytes32"},{"name":"ipfsCid","type":"string","internalType":"string"},{"name":"lawyer","type":"address","internalType":"address"},{"name":"timestamp","type":"uint256","internalType":"uint256"},{"name":"isValidated","type":"bool","internalType":"bool"}],"stateMutability":"view"},{"type":"function","name":"getRoleAdmin","inputs":[{"name":"role","type":"bytes32","internalType":"bytes32"}],"outputs":[{"name":"","type":"bytes32","internalType":"bytes32"}],"stateMutability":"view"},{"type":"function","name":"grantRole","inputs":[{"name":"role","type":"bytes32","internalType":"bytes32"},{"name":"account","type":"address","internalType":"address"}],"outputs":[],"stateMutability":"nonpayable"},{"type":"function","name":"hasRole","inputs":[{"name":"role","type":"bytes32","internalType":"bytes32"},{"name":"account","type":"address","internalType":"address"}],"outputs":[{"name":"","type":"bool","internalType":"bool"}],"stateMutability":"view"},{"type":"function","name":"renounceRole","inputs":[{"name":"role","type":"bytes32","internalType":"bytes32"},{"name":"callerConfirmation","type":"address","internalType":"address"}],"outputs":[],"stateMutability":"nonpayable"},{"type":"function","name":"revokeRole","inputs":[{"name":"role","type":"bytes32","internalType":"bytes32"},{"name":"account","type":"address","internalType":"address"}],"outputs":[],"stateMutability":"nonpayable"},{"type":"function","name":"submitEvidence","inputs":[{"name":"_caseId","type":"uint256","internalType":"uint256"},{"name":"_fileHash","type":"bytes32","internalType":"bytes32"},{"name":"_cid","type":"string","internalType":"string"}],"outputs":[],"stateMutability":"nonpayable"},{"type":"function","name":"supportsInterface","inputs":[{"name":"interfaceId","type":"bytes4","internalType":"bytes4"}],"outputs":[{"name":"","type":"bool","internalType":"bool"}],"stateMutability":"view"},{"type":"function","name":"validateEvidence","inputs":[{"name":"_caseId","type":"uint256","internalType":"uint256"},{"name":"_index","type":"uint256","internalType":"uint256"}],"outputs":[],"stateMutability":"nonpayable"},{"type":"event","name":"EvidenceFiled","inputs":[{"name":"caseId","type":"uint256","indexed":true,"internalType":"uint256"},{"name":"fileHash","type":"bytes32","indexed":false,"internalType":"bytes32"},{"name":"ipfsCid","type":"string","indexed":false,"internalType":"string"},{"name":"lawyer","type":"address","indexed":true,"internalType":"address"}],"anonymous":false},{"type":"event","name":"EvidenceValidated","inputs":[{"name":"caseId","type":"uint256","indexed":true,"internalType":"uint256"},{"name":"index","type":"uint256","indexed":false,"internalType":"uint256"},{"name":"judge","type":"address","indexed":true,"internalType":"address"}],"anonymous":false},{"type":"event","name":"RoleAdminChanged","inputs":[{"name":"role","type":"bytes32","indexed":true,"internalType":"bytes32"},{"name":"previousAdminRole","type":"bytes32","indexed":true,"internalType":"bytes32"},{"name":"newAdminRole","type":"bytes32","indexed":true,"internalType":"bytes32"}],"anonymous":false},{"type":"event","name":"RoleGranted","inputs":[{"name":"role","type":"bytes32","indexed":true,"internalType":"bytes32"},{"name":"account","type":"address","indexed":true,"internalType":"address"},{"name":"sender","type":"address","indexed":true,"internalType":"address"}],"anonymous":false},{"type":"event","name":"RoleRevoked","inputs":[{"name":"role","type":"bytes32","indexed":true,"internalType":"bytes32"},{"name":"account","type":"address","indexed":true,"internalType":"address"},{"name":"sender","type":"address","indexed":true,"internalType":"address"}],"anonymous":false},{"type":"error","name":"AccessControlBadConfirmation","inputs":[]},{"type":"error","name":"AccessControlUnauthorizedAccount","inputs":[{"name":"account","type":"address","internalType":"address"},{"name":"neededRole","type":"bytes32","internalType":"bytes32"}]}],"bytecode":{"object":"0x608060405234801561000f575f5ffd5b506040516116bb3803806116bb83398181016040528101906100319190610207565b6100435f5f1b8261004a60201b60201c565b5050610232565b5f61005b838361013f60201b60201c565b6101355760015f5f8581526020019081526020015f205f015f8473ffffffffffffffffffffffffffffffffffffffff1673ffffffffffffffffffffffffffffffffffffffff1681526020019081526020015f205f6101000a81548160ff0219169083151502179055506100d26101a260201b60201c565b73ffffffffffffffffffffffffffffffffffffffff168273ffffffffffffffffffffffffffffffffffffffff16847f2f8788117e7eff1d82e926ec794901d17c78024a50270940304540a733656f0d60405160405180910390a460019050610139565b5f90505b92915050565b5f5f5f8481526020019081526020015f205f015f8373ffffffffffffffffffffffffffffffffffffffff1673ffffffffffffffffffffffffffffffffffffffff1681526020019081526020015f205f9054906101000a900460ff16905092915050565b5f33905090565b5f5ffd5b5f73ffffffffffffffffffffffffffffffffffffffff82169050919050565b5f6101d6826101ad565b9050919050565b6101e6816101cc565b81146101f0575f5ffd5b50565b5f81519050610201816101dd565b92915050565b5f6020828403121561021c5761021b6101a9565b5b5f610229848285016101f3565b91505092915050565b61147c8061023f5f395ff3fe608060405234801561000f575f5ffd5b50600436106100b2575f3560e01c806391d148541161006f57806391d1485414610188578063a217fddf146101b8578063a5dbedec146101d6578063d547741f1461020b578063e0e4758814610227578063ea75dde414610245576100b2565b806301ffc9a7146100b6578063248a9ca3146100e65780632f2ff15d1461011657806336568abe146101325780633a3f120c1461014e5780638ec6269e1461016a575b5f5ffd5b6100d060048036038101906100cb9190610b85565b610261565b6040516100dd9190610bca565b60405180910390f35b61010060048036038101906100fb9190610c16565b6102da565b60405161010d9190610c50565b60405180910390f35b610130600480360381019061012b9190610cc3565b6102f6565b005b61014c60048036038101906101479190610cc3565b610318565b005b61016860048036038101906101639190610d34565b610393565b005b610172610507565b60405161017f9190610c50565b60405180910390f35b6101a2600480360381019061019d9190610cc3565b61052b565b6040516101af9190610bca565b60405180910390f35b6101c061058e565b6040516101cd9190610c50565b60405180910390f35b6101f060048036038101906101eb9190610d34565b610594565b60405161020296959493929190610e00565b60405180910390f35b61022560048036038101906102209190610cc3565b610697565b005b61022f6106b9565b60405161023c9190610c50565b60405180910390f35b61025f600480360381019061025a9190610f92565b6106dd565b005b5f7f7965db0b000000000000000000000000000000000000000000000000000000007bffffffffffffffffffffffffffffffffffffffffffffffffffffffff1916827bffffffffffffffffffffffffffffffffffffffffffffffffffffffff191614806102d357506102d282610878565b5b9050919050565b5f5f5f8381526020019081526020015f20600101549050919050565b6102ff826102da565b610308816108e1565b61031283836108f5565b50505050565b6103206109de565b73ffffffffffffffffffffffffffffffffffffffff168173ffffffffffffffffffffffffffffffffffffffff1614610384576040517f6697b23200000000000000000000000000000000000000000000000000000000815260040160405180910390fd5b61038e82826109e5565b505050565b7f9c4e6fd68fbdec6e3075ec7bfba710532af019aea93f5f59ebfe5a9d1a0b894e6103bd816108e1565b60015f8481526020019081526020015f20805490508210610413576040517f08c379a000000000000000000000000000000000000000000000000000000000815260040161040a90611048565b60405180910390fd5b5f60015f8581526020019081526020015f20838154811061043757610436611066565b5b905f5260205f2090600602019050806005015f9054906101000a900460ff1615610496576040517f08c379a000000000000000000000000000000000000000000000000000000000815260040161048d906110dd565b60405180910390fd5b6001816005015f6101000a81548160ff0219169083151502179055503373ffffffffffffffffffffffffffffffffffffffff16847fc435251f3ac186072419c1f4d1a885a560b33543239aa4bd5e460269c15a9102856040516104f991906110fb565b60405180910390a350505050565b7f16cedf8f601395ad37b8f7ac016395362fad21dfdd3152a47a294d9c5a3c297481565b5f5f5f8481526020019081526020015f205f015f8373ffffffffffffffffffffffffffffffffffffffff1673ffffffffffffffffffffffffffffffffffffffff1681526020019081526020015f205f9054906101000a900460ff16905092915050565b5f5f1b81565b6001602052815f5260405f2081815481106105ad575f80fd5b905f5260205f2090600602015f9150915050805f0154908060010154908060020180546105d990611141565b80601f016020809104026020016040519081016040528092919081815260200182805461060590611141565b80156106505780601f1061062757610100808354040283529160200191610650565b820191905f5260205f20905b81548152906001019060200180831161063357829003601f168201915b505050505090806003015f9054906101000a900473ffffffffffffffffffffffffffffffffffffffff1690806004015490806005015f9054906101000a900460ff16905086565b6106a0826102da565b6106a9816108e1565b6106b383836109e5565b50505050565b7f9c4e6fd68fbdec6e3075ec7bfba710532af019aea93f5f59ebfe5a9d1a0b894e81565b7f16cedf8f601395ad37b8f7ac016395362fad21dfdd3152a47a294d9c5a3c2974610707816108e1565b5f6040518060c001604052808681526020018581526020018481526020013373ffffffffffffffffffffffffffffffffffffffff1681526020014281526020015f1515815250905060015f8681526020019081526020015f2081908060018154018082558091505060019003905f5260205f2090600602015f909190919091505f820151815f01556020820151816001015560408201518160020190816107ae9190611322565b506060820151816003015f6101000a81548173ffffffffffffffffffffffffffffffffffffffff021916908373ffffffffffffffffffffffffffffffffffffffff1602179055506080820151816004015560a0820151816005015f6101000a81548160ff02191690831515021790555050503373ffffffffffffffffffffffffffffffffffffffff16857f6b8c34cc22c0b4610445a57a272ed2e89a891288a378f7dcf285419ae74a124686866040516108699291906113f1565b60405180910390a35050505050565b5f7f01ffc9a7000000000000000000000000000000000000000000000000000000007bffffffffffffffffffffffffffffffffffffffffffffffffffffffff1916827bffffffffffffffffffffffffffffffffffffffffffffffffffffffff1916149050919050565b6108f2816108ed6109de565b610ace565b50565b5f610900838361052b565b6109d45760015f5f8581526020019081526020015f205f015f8473ffffffffffffffffffffffffffffffffffffffff1673ffffffffffffffffffffffffffffffffffffffff1681526020019081526020015f205f6101000a81548160ff0219169083151502179055506109716109de565b73ffffffffffffffffffffffffffffffffffffffff168273ffffffffffffffffffffffffffffffffffffffff16847f2f8788117e7eff1d82e926ec794901d17c78024a50270940304540a733656f0d60405160405180910390a4600190506109d8565b5f90505b92915050565b5f33905090565b5f6109f0838361052b565b15610ac4575f5f5f8581526020019081526020015f205f015f8473ffffffffffffffffffffffffffffffffffffffff1673ffffffffffffffffffffffffffffffffffffffff1681526020019081526020015f205f6101000a81548160ff021916908315150217905550610a616109de565b73ffffffffffffffffffffffffffffffffffffffff168273ffffffffffffffffffffffffffffffffffffffff16847ff6391f5c32d9c69d2a47ea670b442974b53935d1edc7fd64eb21e047a839171b60405160405180910390a460019050610ac8565b5f90505b92915050565b610ad8828261052b565b610b1b5780826040517fe2517d3f000000000000000000000000000000000000000000000000000000008152600401610b1292919061141f565b60405180910390fd5b5050565b5f604051905090565b5f5ffd5b5f5ffd5b5f7fffffffff0000000000000000000000000000000000000000000000000000000082169050919050565b610b6481610b30565b8114610b6e575f5ffd5b50565b5f81359050610b7f81610b5b565b92915050565b5f60208284031215610b9a57610b99610b28565b5b5f610ba784828501610b71565b91505092915050565b5f8115159050919050565b610bc481610bb0565b82525050565b5f602082019050610bdd5f830184610bbb565b92915050565b5f819050919050565b610bf581610be3565b8114610bff575f5ffd5b50565b5f81359050610c1081610bec565b92915050565b5f60208284031215610c2b57610c2a610b28565b5b5f610c3884828501610c02565b91505092915050565b610c4a81610be3565b82525050565b5f602082019050610c635f830184610c41565b92915050565b5f73ffffffffffffffffffffffffffffffffffffffff82169050919050565b5f610c9282610c69565b9050919050565b610ca281610c88565b8114610cac575f5ffd5b50565b5f81359050610cbd81610c99565b92915050565b5f5f60408385031215610cd957610cd8610b28565b5b5f610ce685828601610c02565b9250506020610cf785828601610caf565b9150509250929050565b5f819050919050565b610d1381610d01565b8114610d1d575f5ffd5b50565b5f81359050610d2e81610d0a565b92915050565b5f5f60408385031215610d4a57610d49610b28565b5b5f610d5785828601610d20565b9250506020610d6885828601610d20565b9150509250929050565b610d7b81610d01565b82525050565b5f81519050919050565b5f82825260208201905092915050565b8281835e5f83830152505050565b5f601f19601f8301169050919050565b5f610dc382610d81565b610dcd8185610d8b565b9350610ddd818560208601610d9b565b610de681610da9565b840191505092915050565b610dfa81610c88565b82525050565b5f60c082019050610e135f830189610d72565b610e206020830188610c41565b8181036040830152610e328187610db9565b9050610e416060830186610df1565b610e4e6080830185610d72565b610e5b60a0830184610bbb565b979650505050505050565b5f5ffd5b5f5ffd5b7f4e487b71000000000000000000000000000000000000000000000000000000005f52604160045260245ffd5b610ea482610da9565b810181811067ffffffffffffffff82111715610ec357610ec2610e6e565b5b80604052505050565b5f610ed5610b1f565b9050610ee18282610e9b565b919050565b5f67ffffffffffffffff821115610f0057610eff610e6e565b5b610f0982610da9565b9050602081019050919050565b828183375f83830152505050565b5f610f36610f3184610ee6565b610ecc565b905082815260208101848484011115610f5257610f51610e6a565b5b610f5d848285610f16565b509392505050565b5f82601f830112610f7957610f78610e66565b5b8135610f89848260208601610f24565b91505092915050565b5f5f5f60608486031215610fa957610fa8610b28565b5b5f610fb686828701610d20565b9350506020610fc786828701610c02565b925050604084013567ffffffffffffffff811115610fe857610fe7610b2c565b5b610ff486828701610f65565b9150509250925092565b7f45766964656e636520646f6573206e6f742065786973740000000000000000005f82015250565b5f611032601783610d8b565b915061103d82610ffe565b602082019050919050565b5f6020820190508181035f83015261105f81611026565b9050919050565b7f4e487b71000000000000000000000000000000000000000000000000000000005f52603260045260245ffd5b7f45766964656e636520616c72656164792076616c6964617465640000000000005f82015250565b5f6110c7601a83610d8b565b91506110d282611093565b602082019050919050565b5f6020820190508181035f8301526110f4816110bb565b9050919050565b5f60208201905061110e5f830184610d72565b92915050565b7f4e487b71000000000000000000000000000000000000000000000000000000005f52602260045260245ffd5b5f600282049050600182168061115857607f821691505b60208210810361116b5761116a611114565b5b50919050565b5f819050815f5260205f209050919050565b5f6020601f8301049050919050565b5f82821b905092915050565b5f600883026111cd7fffffffffffffffffffffffffffffffffffffffffffffffffffffffffffffffff82611192565b6111d78683611192565b95508019841693508086168417925050509392505050565b5f819050919050565b5f61121261120d61120884610d01565b6111ef565b610d01565b9050919050565b5f819050919050565b61122b836111f8565b61123f61123782611219565b84845461119e565b825550505050565b5f5f905090565b611256611247565b611261818484611222565b505050565b5f5b828110156112875761127c5f82840161124e565b600181019050611268565b505050565b601f8211156112da57828211156112d9576112a681611171565b6112af83611183565b6112b885611183565b60208610156112c5575f90505b8083016112d482840382611266565b505050505b5b505050565b5f82821c905092915050565b5f6112fa5f19846008026112df565b1980831691505092915050565b5f61131283836112eb565b9150826002028217905092915050565b61132b82610d81565b67ffffffffffffffff81111561134457611343610e6e565b5b61134e8254611141565b61135982828561128c565b5f60209050601f83116001811461138a575f8415611378578287015190505b6113828582611307565b8655506113e9565b601f19841661139886611171565b5f5b828110156113bf5784890151825560018201915060208501945060208101905061139a565b868310156113dc57848901516113d8601f8916826112eb565b8355505b6001600288020188555050505b505050505050565b5f6040820190506114045f830185610c41565b81810360208301526114168184610db9565b90509392505050565b5f6040820190506114325f830185610df1565b61143f6020830184610c41565b939250505056fea2646970667358221220616ee80a36942c7eb5360c24f6cd6117e54d063b3d4db6fa7009bcf597d7411364736f6c63430008210033","linkReferences":{}},"methodIdentifiers":{"DEFAULT_ADMIN_ROLE()":"a217fddf","JUDGE_ROLE()":"e0e47588","LAWYER_ROLE()":"8ec6269e","caseRegistry(uint256,uint256)":"a5dbedec","getRoleAdmin(bytes32)":"248a9ca3","grantRole(bytes32,address)":"2f2ff15d","hasRole(bytes32,address)":"91d14854","renounceRole(bytes32,address)":"36568abe","revokeRole(bytes32,address)":"d547741f","submitEvidence(uint256,bytes32,string)":"ea75dde4","supportsInterface(bytes4)":"01ffc9a7","validateEvidence(uint256,uint256)":"3a3f120c"},"id":0}