{"abi":[{"type":"constructor","inputs":[{"name":"initialAdmin","type":"address","internalType":"address"}],"stateMutability":"nonpayable"},{"type":"function","name":"DEFAULT_ADMIN_ROLE","inputs":[],"outputs":[{"name":"","type":"bytes32","internalType":"bytes32"}],"stateMutability":"view"},{"type":"function","name":"JUDGE_ROLE","inputs":[],"outputs":[{"name":"","type":"bytes32","internalType":"bytes32"}],"stateMutability":"view"},{"type":"function","name":"LAWYER_ROLE","inputs":[],"outputs":[{"name":"","type":"bytes32","internalType":"bytes32"}],"stateMutability":"view"},{"type":"function","name":"caseRegistry","inputs":[{"name":"","type":"uint256","internalType":"uint256"},{"name":"","type":"uint256","internalType":"uint256"}],"outputs":[{"name":"caseId","type":"uint256","internalType":"uint256"},{"name":"fileHash","type":"bytes32","internalType":"bytes32"},{"name":"ipfsCid","type":"string","internalType":"string"},{"name":"lawyer","type":"address","internalType":"address"},{"name":"timestamp","type":"uint256","internalType":"uint256"},{"name":"isValidated","type":"bool","internalType":"bool"}],"stateMutability":"view"},{"type":"function","name":"getRoleAdmin","inputs":[{"name":"role","type":"bytes32","internalType":"bytes32"}],"outputs":[{"name":"","type":"bytes32","internalType":"bytes32"}],"stateMutability":"view"},{"type":"function","name":"grantRole","inputs":[{"name":"role","type":"bytes32","internalType":"bytes32"},{"name":"account","type":"address","internalType":"address"}],"outputs":[],"stateMutability":"nonpayable"},{"type":"function","name":"hasRole","inputs":[{"name":"role","type":"bytes32","internalType":"bytes32"},{"name":"account","type":"address","internalType":"address"}],"outputs":[{"name":"","type":"bool","internalType":"bool"}],"stateMutability":"view"},{"type":"function","name":"renounceRole","inputs":[{"name":"role","type":"bytes32","internalType":"bytes32"},{"name":"callerConfirmation","type":"address","internalType":"address"}],"outputs":[],"stateMutability":"nonpayable"},{"type":"function","name":"revokeRole","inputs":[{"name":"role","type":"bytes32","internalType":"bytes32"},{"name":"account","type":"address","internalType":"address"}],"outputs":[],"stateMutability":"nonpayable"},{"type":"function","name":"submitEvidence","inputs":[{"name":"_caseId","type":"uint256","internalType":"uint256"},{"name":"_fileHash","type":"bytes32","internalType":"bytes32"},{"name":"_cid","type":"string","internalType":"string"}],"outputs":[],"stateMutability":"nonpayable"},{"type":"function","name":"supportsInterface","inputs":[{"name":"interfaceId","type":"bytes4","internalType":"bytes4"}],"outputs":[{"name":"","type":"bool","internalType":"bool"}],"stateMutability":"view"},{"type":"event","name":"EvidenceFiled","inputs":[{"name":"caseId","type":"uint256","indexed":true,"internalType":"uint256"},{"name":"fileHash","type":"bytes32","indexed":false,"internalType":"bytes32"},{"name":"ipfsCid","type":"string","indexed":false,"internalType":"string"},{"name":"lawyer","type":"address","indexed":true,"internalType":"address"}],"anonymous":false},{"type":"event","name":"RoleAdminChanged","inputs":[{"name":"role","type":"bytes32","indexed":true,"internalType":"bytes32"},{"name":"previousAdminRole","type":"bytes32","indexed":true,"internalType":"bytes32"},{"name":"newAdminRole","type":"bytes32","indexed":true,"internalType":"bytes32"}],"anonymous":false},{"type":"event","name":"RoleGranted","inputs":[{"name":"role","type":"bytes32","indexed":true,"internalType":"bytes32"},{"name":"account","type":"address","indexed":true,"internalType":"address"},{"name":"sender","type":"address","indexed":true,"internalType":"address"}],"anonymous":false},{"type":"event","name":"RoleRevoked","inputs":[{"name":"role","type":"bytes32","indexed":true,"internalType":"bytes32"},{"name":"account","type":"address","indexed":true,"internalType":"address"},{"name":"sender","type":"address","indexed":true,"internalType":"address"}],"anonymous":false},{"type":"error","name":"AccessControlBadConfirmation","inputs":[]},{"type":"error","name":"AccessControlUnauthorizedAccount","inputs":[{"name":"account","type":"address","internalType":"address"},{"name":"neededRole","type":"bytes32","internalType":"bytes32"}]}],"bytecode":{"object":"0x608060405234801561000f575f5ffd5b5060405161140a38038061140a83398181016040528101906100319190610207565b6100435f5f1b8261004a60201b60201c565b5050610232565b5f61005b838361013f60201b60201c565b6101355760015f5f8581526020019081526020015f205f015f8473ffffffffffffffffffffffffffffffffffffffff1673ffffffffffffffffffffffffffffffffffffffff1681526020019081526020015f205f6101000a81548160ff0219169083151502179055506100d26101a260201b60201c565b73ffffffffffffffffffffffffffffffffffffffff168273ffffffffffffffffffffffffffffffffffffffff16847f2f8788117e7eff1d82e926ec794901d17c78024a50270940304540a733656f0d60405160405180910390a460019050610139565b5f90505b92915050565b5f5f5f8481526020019081526020015f205f015f8373ffffffffffffffffffffffffffffffffffffffff1673ffffffffffffffffffffffffffffffffffffffff1681526020019081526020015f205f9054906101000a900460ff16905092915050565b5f33905090565b5f5ffd5b5f73ffffffffffffffffffffffffffffffffffffffff82169050919050565b5f6101d6826101ad565b9050919050565b6101e6816101cc565b81146101f0575f5ffd5b50565b5f81519050610201816101dd565b92915050565b5f6020828403121561021c5761021b6101a9565b5b5f610229848285016101f3565b91505092915050565b6111cb8061023f5f395ff3fe608060405234801561000f575f5ffd5b50600436106100a7575f3560e01c806391d148541161006f57806391d1485414610161578063a217fddf14610191578063a5dbedec146101af578063d547741f146101e4578063e0e4758814610200578063ea75dde41461021e576100a7565b806301ffc9a7146100ab578063248a9ca3146100db5780632f2ff15d1461010b57806336568abe146101275780638ec6269e14610143575b5f5ffd5b6100c560048036038101906100c091906109ea565b61023a565b6040516100d29190610a2f565b60405180910390f35b6100f560048036038101906100f09190610a7b565b6102b3565b6040516101029190610ab5565b60405180910390f35b61012560048036038101906101209190610b28565b6102cf565b005b610141600480360381019061013c9190610b28565b6102f1565b005b61014b61036c565b6040516101589190610ab5565b60405180910390f35b61017b60048036038101906101769190610b28565b610390565b6040516101889190610a2f565b60405180910390f35b6101996103f3565b6040516101a69190610ab5565b60405180910390f35b6101c960048036038101906101c49190610b99565b6103f9565b6040516101db96959493929190610c65565b60405180910390f35b6101fe60048036038101906101f99190610b28565b6104fc565b005b61020861051e565b6040516102159190610ab5565b60405180910390f35b61023860048036038101906102339190610df7565b610542565b005b5f7f7965db0b000000000000000000000000000000000000000000000000000000007bffffffffffffffffffffffffffffffffffffffffffffffffffffffff1916827bffffffffffffffffffffffffffffffffffffffffffffffffffffffff191614806102ac57506102ab826106dd565b5b9050919050565b5f5f5f8381526020019081526020015f20600101549050919050565b6102d8826102b3565b6102e181610746565b6102eb838361075a565b50505050565b6102f9610843565b73ffffffffffffffffffffffffffffffffffffffff168173ffffffffffffffffffffffffffffffffffffffff161461035d576040517f6697b23200000000000000000000000000000000000000000000000000000000815260040160405180910390fd5b610367828261084a565b505050565b7f16cedf8f601395ad37b8f7ac016395362fad21dfdd3152a47a294d9c5a3c297481565b5f5f5f8481526020019081526020015f205f015f8373ffffffffffffffffffffffffffffffffffffffff1673ffffffffffffffffffffffffffffffffffffffff1681526020019081526020015f205f9054906101000a900460ff16905092915050565b5f5f1b81565b6001602052815f5260405f208181548110610412575f80fd5b905f5260205f2090600602015f9150915050805f01549080600101549080600201805461043e90610e90565b80601f016020809104026020016040519081016040528092919081815260200182805461046a90610e90565b80156104b55780601f1061048c576101008083540402835291602001916104b5565b820191905f5260205f20905b81548152906001019060200180831161049857829003601f168201915b505050505090806003015f9054906101000a900473ffffffffffffffffffffffffffffffffffffffff1690806004015490806005015f9054906101000a900460ff16905086565b610505826102b3565b61050e81610746565b610518838361084a565b50505050565b7f9c4e6fd68fbdec6e3075ec7bfba710532af019aea93f5f59ebfe5a9d1a0b894e81565b7f16cedf8f601395ad37b8f7ac016395362fad21dfdd3152a47a294d9c5a3c297461056c81610746565b5f6040518060c001604052808681526020018581526020018481526020013373ffffffffffffffffffffffffffffffffffffffff1681526020014281526020015f1515815250905060015f8681526020019081526020015f2081908060018154018082558091505060019003905f5260205f2090600602015f909190919091505f820151815f01556020820151816001015560408201518160020190816106139190611071565b506060820151816003015f6101000a81548173ffffffffffffffffffffffffffffffffffffffff021916908373ffffffffffffffffffffffffffffffffffffffff1602179055506080820151816004015560a0820151816005015f6101000a81548160ff02191690831515021790555050503373ffffffffffffffffffffffffffffffffffffffff16857f6b8c34cc22c0b4610445a57a272ed2e89a891288a378f7dcf285419ae74a124686866040516106ce929190611140565b60405180910390a35050505050565b5f7f01ffc9a7000000000000000000000000000000000000000000000000000000007bffffffffffffffffffffffffffffffffffffffffffffffffffffffff1916827bffffffffffffffffffffffffffffffffffffffffffffffffffffffff1916149050919050565b61075781610752610843565b610933565b50565b5f6107658383610390565b6108395760015f5f8581526020019081526020015f205f015f8473ffffffffffffffffffffffffffffffffffffffff1673ffffffffffffffffffffffffffffffffffffffff1681526020019081526020015f205f6101000a81548160ff0219169083151502179055506107d6610843565b73ffffffffffffffffffffffffffffffffffffffff168273ffffffffffffffffffffffffffffffffffffffff16847f2f8788117e7eff1d82e926ec794901d17c78024a50270940304540a733656f0d60405160405180910390a46001905061083d565b5f90505b92915050565b5f33905090565b5f6108558383610390565b15610929575f5f5f8581526020019081526020015f205f015f8473ffffffffffffffffffffffffffffffffffffffff1673ffffffffffffffffffffffffffffffffffffffff1681526020019081526020015f205f6101000a81548160ff0219169083151502179055506108c6610843565b73ffffffffffffffffffffffffffffffffffffffff168273ffffffffffffffffffffffffffffffffffffffff16847ff6391f5c32d9c69d2a47ea670b442974b53935d1edc7fd64eb21e047a839171b60405160405180910390a46001905061092d565b5f90505b92915050565b61093d8282610390565b6109805780826040517fe2517d3f00000000000000000000000000000000000000000000000000000000815260040161097792919061116e565b60405180910390fd5b5050565b5f604051905090565b5f5ffd5b5f5ffd5b5f7fffffffff0000000000000000000000000000000000000000000000000000000082169050919050565b6109c981610995565b81146109d3575f5ffd5b50565b5f813590506109e4816109c0565b92915050565b5f602082840312156109ff576109fe61098d565b5b5f610a0c848285016109d6565b91505092915050565b5f8115159050919050565b610a2981610a15565b82525050565b5f602082019050610a425f830184610a20565b92915050565b5f819050919050565b610a5a81610a48565b8114610a64575f5ffd5b50565b5f81359050610a7581610a51565b92915050565b5f60208284031215610a9057610a8f61098d565b5b5f610a9d84828501610a67565b91505092915050565b610aaf81610a48565b82525050565b5f602082019050610ac85f830184610aa6565b92915050565b5f73ffffffffffffffffffffffffffffffffffffffff82169050919050565b5f610af782610ace565b9050919050565b610b0781610aed565b8114610b11575f5ffd5b50565b5f81359050610b2281610afe565b92915050565b5f5f60408385031215610b3e57610b3d61098d565b5b5f610b4b85828601610a67565b9250506020610b5c85828601610b14565b9150509250929050565b5f819050919050565b610b7881610b66565b8114610b82575f5ffd5b50565b5f81359050610b9381610b6f565b92915050565b5f5f60408385031215610baf57610bae61098d565b5b5f610bbc85828601610b85565b9250506020610bcd85828601610b85565b9150509250929050565b610be081610b66565b82525050565b5f81519050919050565b5f82825260208201905092915050565b8281835e5f83830152505050565b5f601f19601f8301169050919050565b5f610c2882610be6565b610c328185610bf0565b9350610c42818560208601610c00565b610c4b81610c0e565b840191505092915050565b610c5f81610aed565b82525050565b5f60c082019050610c785f830189610bd7565b610c856020830188610aa6565b8181036040830152610c978187610c1e565b9050610ca66060830186610c56565b610cb36080830185610bd7565b610cc060a0830184610a20565b979650505050505050565b5f5ffd5b5f5ffd5b7f4e487b71000000000000000000000000000000000000000000000000000000005f52604160045260245ffd5b610d0982610c0e565b810181811067ffffffffffffffff82111715610d2857610d27610cd3565b5b80604052505050565b5f610d3a610984565b9050610d468282610d00565b919050565b5f67ffffffffffffffff821115610d6557610d64610cd3565b5b610d6e82610c0e565b9050602081019050919050565b828183375f83830152505050565b5f610d9b610d9684610d4b565b610d31565b905082815260208101848484011115610db757610db6610ccf565b5b610dc2848285610d7b565b509392505050565b5f82601f830112610dde57610ddd610ccb565b5b8135610dee848260208601610d89565b91505092915050565b5f5f5f60608486031215610e0e57610e0d61098d565b5b5f610e1b86828701610b85565b9350506020610e2c86828701610a67565b925050604084013567ffffffffffffffff811115610e4d57610e4c610991565b5b610e5986828701610dca565b9150509250925092565b7f4e487b71000000000000000000000000000000000000000000000000000000005f52602260045260245ffd5b5f6002820490506001821680610ea757607f821691505b602082108103610eba57610eb9610e63565b5b50919050565b5f819050815f5260205f209050919050565b5f6020601f8301049050919050565b5f82821b905092915050565b5f60088302610f1c7fffffffffffffffffffffffffffffffffffffffffffffffffffffffffffffffff82610ee1565b610f268683610ee1565b95508019841693508086168417925050509392505050565b5f819050919050565b5f610f61610f5c610f5784610b66565b610f3e565b610b66565b9050919050565b5f819050919050565b610f7a83610f47565b610f8e610f8682610f68565b848454610eed565b825550505050565b5f5f905090565b610fa5610f96565b610fb0818484610f71565b505050565b5f5b82811015610fd657610fcb5f828401610f9d565b600181019050610fb7565b505050565b601f821115611029578282111561102857610ff581610ec0565b610ffe83610ed2565b61100785610ed2565b6020861015611014575f90505b80830161102382840382610fb5565b505050505b5b505050565b5f82821c905092915050565b5f6110495f198460080261102e565b1980831691505092915050565b5f611061838361103a565b9150826002028217905092915050565b61107a82610be6565b67ffffffffffffffff81111561109357611092610cd3565b5b61109d8254610e90565b6110a8828285610fdb565b5f60209050601f8311600181146110d9575f84156110c7578287015190505b6110d18582611056565b865550611138565b601f1984166110e786610ec0565b5f5b8281101561110e578489015182556001820191506020850194506020810190506110e9565b8683101561112b5784890151611127601f89168261103a565b8355505b6001600288020188555050505b505050505050565b5f6040820190506111535f830185610aa6565b81810360208301526111658184610c1e565b90509392505050565b5f6040820190506111815f830185610c56565b61118e6020830184610aa6565b939250505056fea264697066735822122068549ffc7e9f96fa3b5a5744ac15f17620d71b062b5088b3353a40c585c5d12e64736f6c63430008210033","linkReferences":{}},"methodIdentifiers":{"DEFAULT_ADMIN_ROLE()":"a217fddf","JUDGE_ROLE()":"e0e47588","LAWYER_ROLE()":"8ec6269e","caseRegistry(uint256,uint256)":"a5dbedec","getRoleAdmin(bytes32)":"248a9ca3","grantRole(bytes32,address)":"2f2ff15d","hasRole(bytes32,address)":"91d14854","renounceRole(bytes32,address)":"36568abe","revokeRole(bytes32,address)":"d547741f","submitEvidence(uint256,bytes32,string)":"ea75dde4","supportsInterface(bytes4)":"01ffc9a7"},"id":1}